{
  "contractName": "VirtualLands",
  "abi": [
    {
      "constant": false,
      "inputs": [
        {
          "name": "_to",
          "type": "address"
        },
        {
          "name": "_tokenId",
          "type": "uint256"
        }
      ],
      "name": "transferFrom",
      "outputs": [],
      "payable": false,
      "stateMutability": "nonpayable",
      "type": "function"
    },
    {
      "constant": true,
      "inputs": [],
      "name": "name",
      "outputs": [
        {
          "name": "",
          "type": "string"
        }
      ],
      "payable": false,
      "stateMutability": "view",
      "type": "function"
    },
    {
      "constant": false,
      "inputs": [
        {
          "name": "_to",
          "type": "address"
        },
        {
          "name": "_tokenId",
          "type": "uint256"
        }
      ],
      "name": "approve",
      "outputs": [],
      "payable": false,
      "stateMutability": "nonpayable",
      "type": "function"
    },
    {
      "constant": true,
      "inputs": [
        {
          "name": "",
          "type": "uint256"
        }
      ],
      "name": "tokenToDescription",
      "outputs": [
        {
          "name": "",
          "type": "string"
        }
      ],
      "payable": false,
      "stateMutability": "view",
      "type": "function"
    },
    {
      "constant": true,
      "inputs": [],
      "name": "totalSupply",
      "outputs": [
        {
          "name": "_totalSupply",
          "type": "uint256"
        }
      ],
      "payable": false,
      "stateMutability": "view",
      "type": "function"
    },
    {
      "constant": true,
      "inputs": [
        {
          "name": "_tokenId",
          "type": "uint256"
        }
      ],
      "name": "approvedFor",
      "outputs": [
        {
          "name": "_approved",
          "type": "address"
        }
      ],
      "payable": false,
      "stateMutability": "view",
      "type": "function"
    },
    {
      "constant": true,
      "inputs": [
        {
          "name": "",
          "type": "uint256"
        }
      ],
      "name": "tokenToPixelsColors",
      "outputs": [
        {
          "name": "",
          "type": "string"
        }
      ],
      "payable": false,
      "stateMutability": "view",
      "type": "function"
    },
    {
      "constant": true,
      "inputs": [
        {
          "name": "_owner",
          "type": "address"
        }
      ],
      "name": "tokensOf",
      "outputs": [
        {
          "name": "",
          "type": "uint256[]"
        }
      ],
      "payable": false,
      "stateMutability": "view",
      "type": "function"
    },
    {
      "constant": true,
      "inputs": [
        {
          "name": "",
          "type": "uint256"
        }
      ],
      "name": "tokenToSalePrice",
      "outputs": [
        {
          "name": "",
          "type": "uint256"
        }
      ],
      "payable": false,
      "stateMutability": "view",
      "type": "function"
    },
    {
      "constant": true,
      "inputs": [
        {
          "name": "_tokenId",
          "type": "uint256"
        }
      ],
      "name": "ownerOf",
      "outputs": [
        {
          "name": "_owner",
          "type": "address"
        }
      ],
      "payable": false,
      "stateMutability": "view",
      "type": "function"
    },
    {
      "constant": true,
      "inputs": [
        {
          "name": "_owner",
          "type": "address"
        }
      ],
      "name": "balanceOf",
      "outputs": [
        {
          "name": "_balance",
          "type": "uint256"
        }
      ],
      "payable": false,
      "stateMutability": "view",
      "type": "function"
    },
    {
      "constant": true,
      "inputs": [],
      "name": "owner",
      "outputs": [
        {
          "name": "",
          "type": "address"
        }
      ],
      "payable": false,
      "stateMutability": "view",
      "type": "function"
    },
    {
      "constant": true,
      "inputs": [],
      "name": "symbol",
      "outputs": [
        {
          "name": "",
          "type": "string"
        }
      ],
      "payable": false,
      "stateMutability": "view",
      "type": "function"
    },
    {
      "constant": false,
      "inputs": [
        {
          "name": "_tokenId",
          "type": "uint256"
        }
      ],
      "name": "removeApproval",
      "outputs": [],
      "payable": false,
      "stateMutability": "nonpayable",
      "type": "function"
    },
    {
      "constant": false,
      "inputs": [
        {
          "name": "_to",
          "type": "address"
        },
        {
          "name": "_tokenId",
          "type": "uint256"
        }
      ],
      "name": "transfer",
      "outputs": [],
      "payable": false,
      "stateMutability": "nonpayable",
      "type": "function"
    },
    {
      "constant": true,
      "inputs": [
        {
          "name": "",
          "type": "address"
        }
      ],
      "name": "BalanceOfEther",
      "outputs": [
        {
          "name": "",
          "type": "uint256"
        }
      ],
      "payable": false,
      "stateMutability": "view",
      "type": "function"
    },
    {
      "constant": true,
      "inputs": [
        {
          "name": "",
          "type": "uint256"
        }
      ],
      "name": "tokenToLink",
      "outputs": [
        {
          "name": "",
          "type": "string"
        }
      ],
      "payable": false,
      "stateMutability": "view",
      "type": "function"
    },
    {
      "inputs": [],
      "payable": false,
      "stateMutability": "nonpayable",
      "type": "constructor"
    },
    {
      "anonymous": false,
      "inputs": [
        {
          "indexed": false,
          "name": "_tokenId",
          "type": "uint256"
        },
        {
          "indexed": false,
          "name": "_price",
          "type": "uint256"
        }
      ],
      "name": "EmitUpForSale",
      "type": "event"
    },
    {
      "anonymous": false,
      "inputs": [
        {
          "indexed": false,
          "name": "_tokenId",
          "type": "uint256"
        },
        {
          "indexed": false,
          "name": "_at",
          "type": "uint256"
        },
        {
          "indexed": false,
          "name": "_by",
          "type": "address"
        }
      ],
      "name": "EmitBought",
      "type": "event"
    },
    {
      "anonymous": false,
      "inputs": [
        {
          "indexed": false,
          "name": "_tokenId",
          "type": "uint256"
        }
      ],
      "name": "EmitSaleOfferRemoved",
      "type": "event"
    },
    {
      "anonymous": false,
      "inputs": [
        {
          "indexed": false,
          "name": "_initialPrice",
          "type": "uint256"
        }
      ],
      "name": "EmitSetInitialPrice",
      "type": "event"
    },
    {
      "anonymous": false,
      "inputs": [
        {
          "indexed": false,
          "name": "_tokenId",
          "type": "uint256"
        }
      ],
      "name": "EmitChangedPixelsColors",
      "type": "event"
    },
    {
      "anonymous": false,
      "inputs": [
        {
          "indexed": false,
          "name": "_tokenId",
          "type": "uint256"
        }
      ],
      "name": "EmitChangedDescription",
      "type": "event"
    },
    {
      "anonymous": false,
      "inputs": [
        {
          "indexed": false,
          "name": "_tokenId",
          "type": "uint256"
        }
      ],
      "name": "EmitChangedLink",
      "type": "event"
    },
    {
      "anonymous": false,
      "inputs": [
        {
          "indexed": true,
          "name": "_from",
          "type": "address"
        },
        {
          "indexed": true,
          "name": "_to",
          "type": "address"
        },
        {
          "indexed": false,
          "name": "_tokenId",
          "type": "uint256"
        }
      ],
      "name": "Transfer",
      "type": "event"
    },
    {
      "anonymous": false,
      "inputs": [
        {
          "indexed": true,
          "name": "_owner",
          "type": "address"
        },
        {
          "indexed": true,
          "name": "_approved",
          "type": "address"
        },
        {
          "indexed": false,
          "name": "_tokenId",
          "type": "uint256"
        }
      ],
      "name": "Approval",
      "type": "event"
    },
    {
      "constant": true,
      "inputs": [],
      "name": "totalSupplyLimit",
      "outputs": [
        {
          "name": "",
          "type": "uint256"
        }
      ],
      "payable": false,
      "stateMutability": "view",
      "type": "function"
    },
    {
      "constant": true,
      "inputs": [],
      "name": "initialPrice",
      "outputs": [
        {
          "name": "",
          "type": "uint256"
        }
      ],
      "payable": false,
      "stateMutability": "view",
      "type": "function"
    },
    {
      "constant": false,
      "inputs": [
        {
          "name": "_tokenId",
          "type": "uint256"
        }
      ],
      "name": "initialBuyToken",
      "outputs": [],
      "payable": true,
      "stateMutability": "payable",
      "type": "function"
    },
    {
      "constant": false,
      "inputs": [
        {
          "name": "_initialPrice",
          "type": "uint256"
        }
      ],
      "name": "setInitialPrice",
      "outputs": [],
      "payable": false,
      "stateMutability": "nonpayable",
      "type": "function"
    },
    {
      "constant": false,
      "inputs": [
        {
          "name": "_tokenId",
          "type": "uint256"
        },
        {
          "name": "_newDescription",
          "type": "string"
        }
      ],
      "name": "setTokenDescription",
      "outputs": [],
      "payable": false,
      "stateMutability": "nonpayable",
      "type": "function"
    },
    {
      "constant": false,
      "inputs": [
        {
          "name": "_tokenId",
          "type": "uint256"
        },
        {
          "name": "_newLink",
          "type": "string"
        }
      ],
      "name": "setTokenLink",
      "outputs": [],
      "payable": false,
      "stateMutability": "nonpayable",
      "type": "function"
    },
    {
      "constant": false,
      "inputs": [],
      "name": "withdraw",
      "outputs": [],
      "payable": false,
      "stateMutability": "nonpayable",
      "type": "function"
    },
    {
      "constant": false,
      "inputs": [
        {
          "name": "_tokenId",
          "type": "uint256"
        },
        {
          "name": "_price",
          "type": "uint256"
        }
      ],
      "name": "sellToken",
      "outputs": [],
      "payable": false,
      "stateMutability": "nonpayable",
      "type": "function"
    },
    {
      "constant": false,
      "inputs": [
        {
          "name": "_tokenId",
          "type": "uint256"
        }
      ],
      "name": "buyToken",
      "outputs": [],
      "payable": true,
      "stateMutability": "payable",
      "type": "function"
    },
    {
      "constant": false,
      "inputs": [
        {
          "name": "_tokenId",
          "type": "uint256"
        }
      ],
      "name": "removeTokenFromSale",
      "outputs": [],
      "payable": false,
      "stateMutability": "nonpayable",
      "type": "function"
    },
    {
      "constant": false,
      "inputs": [
        {
          "name": "_tokenId",
          "type": "uint256"
        },
        {
          "name": "_newColors",
          "type": "string"
        }
      ],
      "name": "setTokenPixelsColors",
      "outputs": [],
      "payable": false,
      "stateMutability": "nonpayable",
      "type": "function"
    }
  ],
  "bytecode": "0x60806040526040805190810160405280600c81526020017f5669727475616c4c616e6473000000000000000000000000000000000000000081525060059080519060200190620000519291906200010c565b506040805190810160405280600381526020017f564c730000000000000000000000000000000000000000000000000000000000815250600690805190602001906200009f9291906200010c565b50348015620000ad57600080fd5b5033600760006101000a81548173ffffffffffffffffffffffffffffffffffffffff021916908373ffffffffffffffffffffffffffffffffffffffff160217905550612710600881905550662386f26fc10000600981905550620001bb565b828054600181600116156101000203166002900490600052602060002090601f016020900481019282601f106200014f57805160ff191683800117855562000180565b8280016001018555821562000180579182015b828111156200017f57825182559160200191906001019062000162565b5b5090506200018f919062000193565b5090565b620001b891905b80821115620001b45760008160009055506001016200019a565b5090565b90565b61267c80620001cb6000396000f30060806040526004361061016a576000357c0100000000000000000000000000000000000000000000000000000000900463ffffffff16806301c6adc31461016f57806306fdde03146101bc578063095ea7b31461024c5780630ee8d85a1461029957806318160ddd1461033f5780631897bcf31461036a5780631d0806ae146103a1578063246a908b146103cc5780632a6dd48f1461043f5780632d296bf1146104ac57806332ee72b6146104cc5780633ccfd60b146105725780635972dbf3146105895780635a3f2672146105fc5780635ae2affe146106945780636352211e146106d557806370a08231146107425780638d6a48f0146107995780638da5cb5b146107b957806395d89b41146108105780639bbe3ada146108a05780639f4ba0ee146108cd578063a400b74d146108fa578063a9059cbb1461096d578063b9b18bd9146109ba578063bac21a2214610a11578063e620d69f14610a3c578063e8cdea1114610ae2575b600080fd5b34801561017b57600080fd5b506101ba600480360381019080803573ffffffffffffffffffffffffffffffffffffffff16906020019092919080359060200190929190505050610b0f565b005b3480156101c857600080fd5b506101d1610c82565b6040518080602001828103825283818151815260200191508051906020019080838360005b838110156102115780820151818401526020810190506101f6565b50505050905090810190601f16801561023e5780820380516001836020036101000a031916815260200191505b509250505060405180910390f35b34801561025857600080fd5b50610297600480360381019080803573ffffffffffffffffffffffffffffffffffffffff16906020019092919080359060200190929190505050610d20565b005b3480156102a557600080fd5b506102c460048036038101908080359060200190929190505050610edc565b6040518080602001828103825283818151815260200191508051906020019080838360005b838110156103045780820151818401526020810190506102e9565b50505050905090810190601f1680156103315780820380516001836020036101000a031916815260200191505b509250505060405180910390f35b34801561034b57600080fd5b50610354610f8c565b6040518082815260200191505060405180910390f35b34801561037657600080fd5b5061039f6004803603810190808035906020019092919080359060200190929190505050610f95565b005b3480156103ad57600080fd5b506103b66110ad565b6040518082815260200191505060405180910390f35b3480156103d857600080fd5b5061043d60048036038101908080359060200190929190803590602001908201803590602001908080601f01602080910402602001604051908101604052809392919081815260200183838082843782019150505050505091929192905050506110b7565b005b34801561044b57600080fd5b5061046a600480360381019080803590602001909291905050506111a4565b604051808273ffffffffffffffffffffffffffffffffffffffff1673ffffffffffffffffffffffffffffffffffffffff16815260200191505060405180910390f35b6104ca600480360381019080803590602001909291905050506111e1565b005b3480156104d857600080fd5b506104f760048036038101908080359060200190929190505050611499565b6040518080602001828103825283818151815260200191508051906020019080838360005b8381101561053757808201518184015260208101905061051c565b50505050905090810190601f1680156105645780820380516001836020036101000a031916815260200191505b509250505060405180910390f35b34801561057e57600080fd5b50610587611549565b005b34801561059557600080fd5b506105fa60048036038101908080359060200190929190803590602001908201803590602001908080601f016020809104026020016040519081016040528093929190818152602001838380828437820191505050505050919291929050505061161c565b005b34801561060857600080fd5b5061063d600480360381019080803573ffffffffffffffffffffffffffffffffffffffff169060200190929190505050611709565b6040518080602001828103825283818151815260200191508051906020019060200280838360005b83811015610680578082015181840152602081019050610665565b505050509050019250505060405180910390f35b3480156106a057600080fd5b506106bf600480360381019080803590602001909291905050506117a0565b6040518082815260200191505060405180910390f35b3480156106e157600080fd5b50610700600480360381019080803590602001909291905050506117b8565b604051808273ffffffffffffffffffffffffffffffffffffffff1673ffffffffffffffffffffffffffffffffffffffff16815260200191505060405180910390f35b34801561074e57600080fd5b50610783600480360381019080803573ffffffffffffffffffffffffffffffffffffffff1690602001909291905050506117f5565b6040518082815260200191505060405180910390f35b6107b760048036038101908080359060200190929190505050611841565b005b3480156107c557600080fd5b506107ce611a6a565b604051808273ffffffffffffffffffffffffffffffffffffffff1673ffffffffffffffffffffffffffffffffffffffff16815260200191505060405180910390f35b34801561081c57600080fd5b50610825611a90565b6040518080602001828103825283818151815260200191508051906020019080838360005b8381101561086557808201518184015260208101905061084a565b50505050905090810190601f1680156108925780820380516001836020036101000a031916815260200191505b509250505060405180910390f35b3480156108ac57600080fd5b506108cb60048036038101908080359060200190929190505050611b2e565b005b3480156108d957600080fd5b506108f860048036038101908080359060200190929190505050611c99565b005b34801561090657600080fd5b5061096b60048036038101908080359060200190929190803590602001908201803590602001908080601f0160208091040260200160405190810160405280939291908181526020018383808284378201915050505050509192919290505050611d9f565b005b34801561097957600080fd5b506109b8600480360381019080803573ffffffffffffffffffffffffffffffffffffffff16906020019092919080359060200190929190505050611e8c565b005b3480156109c657600080fd5b506109fb600480360381019080803573ffffffffffffffffffffffffffffffffffffffff169060200190929190505050611fc6565b6040518082815260200191505060405180910390f35b348015610a1d57600080fd5b50610a26611fde565b6040518082815260200191505060405180910390f35b348015610a4857600080fd5b50610a6760048036038101908080359060200190929190505050611fe8565b6040518080602001828103825283818151815260200191508051906020019080838360005b83811015610aa7578082015181840152602081019050610a8c565b50505050905090810190601f168015610ad45780820380516001836020036101000a031916815260200191505b509250505060405180910390f35b348015610aee57600080fd5b50610b0d60048036038101908080359060200190929190505050612098565b005b80600073ffffffffffffffffffffffffffffffffffffffff16610b31826117b8565b73ffffffffffffffffffffffffffffffffffffffff1614151515610b5457600080fd5b3373ffffffffffffffffffffffffffffffffffffffff166004600084815260200190815260200160002060009054906101000a900473ffffffffffffffffffffffffffffffffffffffff1673ffffffffffffffffffffffffffffffffffffffff16141515610bc157600080fd5b600073ffffffffffffffffffffffffffffffffffffffff168373ffffffffffffffffffffffffffffffffffffffff1614151515610bfd57600080fd5b8273ffffffffffffffffffffffffffffffffffffffff16610c1d836117b8565b73ffffffffffffffffffffffffffffffffffffffff167fddf252ad1be2c89b69c2b068fc378daa952ba7f163c4a11628f55a4df523b3ef846040518082815260200191505060405180910390a3610c7d610c76836117b8565b8484612199565b505050565b60058054600181600116156101000203166002900480601f016020809104026020016040519081016040528092919081815260200182805460018160011615610100020316600290048015610d185780601f10610ced57610100808354040283529160200191610d18565b820191906000526020600020905b815481529060010190602001808311610cfb57829003601f168201915b505050505081565b80600073ffffffffffffffffffffffffffffffffffffffff16610d42826117b8565b73ffffffffffffffffffffffffffffffffffffffff1614151515610d6557600080fd5b813373ffffffffffffffffffffffffffffffffffffffff16610d86826117b8565b73ffffffffffffffffffffffffffffffffffffffff16141515610da857600080fd5b8373ffffffffffffffffffffffffffffffffffffffff163373ffffffffffffffffffffffffffffffffffffffff1614151515610de357600080fd5b600073ffffffffffffffffffffffffffffffffffffffff168473ffffffffffffffffffffffffffffffffffffffff1614151515610e1f57600080fd5b836004600085815260200190815260200160002060006101000a81548173ffffffffffffffffffffffffffffffffffffffff021916908373ffffffffffffffffffffffffffffffffffffffff1602179055508373ffffffffffffffffffffffffffffffffffffffff163373ffffffffffffffffffffffffffffffffffffffff167f8c5be1e5ebec7d5bd14f71427d1e84f3dd0314c0f7b2291e5b200ac8c7c3b925856040518082815260200191505060405180910390a350505050565b600b6020528060005260406000206000915090508054600181600116156101000203166002900480601f016020809104026020016040519081016040528092919081815260200182805460018160011615610100020316600290048015610f845780601f10610f5957610100808354040283529160200191610f84565b820191906000526020600020905b815481529060010190602001808311610f6757829003601f168201915b505050505081565b60008054905090565b81600073ffffffffffffffffffffffffffffffffffffffff16610fb7826117b8565b73ffffffffffffffffffffffffffffffffffffffff1614151515610fda57600080fd5b823373ffffffffffffffffffffffffffffffffffffffff16610ffb826117b8565b73ffffffffffffffffffffffffffffffffffffffff1614151561101d57600080fd5b836000600e60008381526020019081526020016000205414151561104057600080fd5b60008411151561104f57600080fd5b83600e6000878152602001908152602001600020819055507f48dfbd5e8c7a96b0c2dca11f83effeae25a0702dbff54c23fa88c97e8567b5428585604051808381526020018281526020019250505060405180910390a15050505050565b6000600954905090565b81600073ffffffffffffffffffffffffffffffffffffffff166110d9826117b8565b73ffffffffffffffffffffffffffffffffffffffff16141515156110fc57600080fd5b823373ffffffffffffffffffffffffffffffffffffffff1661111d826117b8565b73ffffffffffffffffffffffffffffffffffffffff1614151561113f57600080fd5b82600b6000868152602001908152602001600020908051906020019061116692919061257f565b507f87e9b2850affbb64e3d3018b4ee69bc1126ef9d97c1f68b7d05b28d9c415e084846040518082815260200191505060405180910390a150505050565b60006004600083815260200190815260200160002060009054906101000a900473ffffffffffffffffffffffffffffffffffffffff169050919050565b80600073ffffffffffffffffffffffffffffffffffffffff16611203826117b8565b73ffffffffffffffffffffffffffffffffffffffff161415151561122657600080fd5b816000600e60008381526020019081526020016000205411151561124957600080fd5b823373ffffffffffffffffffffffffffffffffffffffff1661126a826117b8565b73ffffffffffffffffffffffffffffffffffffffff161415151561128d57600080fd5b600e60008581526020019081526020016000205434101515156112af57600080fd5b6000600e6000868152602001908152602001600020819055506112e266038d7ea4c68000346121de90919063ffffffff16565b600d60006112ef876117b8565b73ffffffffffffffffffffffffffffffffffffffff1673ffffffffffffffffffffffffffffffffffffffff168152602001908152602001600020819055506113a866038d7ea4c68000600d6000600760009054906101000a900473ffffffffffffffffffffffffffffffffffffffff1673ffffffffffffffffffffffffffffffffffffffff1673ffffffffffffffffffffffffffffffffffffffff168152602001908152602001600020546121f790919063ffffffff16565b600d6000600760009054906101000a900473ffffffffffffffffffffffffffffffffffffffff1673ffffffffffffffffffffffffffffffffffffffff1673ffffffffffffffffffffffffffffffffffffffff16815260200190815260200160002081905550611420611419856117b8565b3386612199565b7f80a902903a432d55fa4aacba4be2a79821bf5a27a98c69f914cfd93b1bd40aaf843433604051808481526020018381526020018273ffffffffffffffffffffffffffffffffffffffff1673ffffffffffffffffffffffffffffffffffffffff168152602001935050505060405180910390a150505050565b600a6020528060005260406000206000915090508054600181600116156101000203166002900480601f0160208091040260200160405190810160405280929190818152602001828054600181600116156101000203166002900480156115415780601f1061151657610100808354040283529160200191611541565b820191906000526020600020905b81548152906001019060200180831161152457829003601f168201915b505050505081565b6000600d60003373ffffffffffffffffffffffffffffffffffffffff1673ffffffffffffffffffffffffffffffffffffffff1681526020019081526020016000205490506000600d60003373ffffffffffffffffffffffffffffffffffffffff1673ffffffffffffffffffffffffffffffffffffffff168152602001908152602001600020819055503373ffffffffffffffffffffffffffffffffffffffff166108fc829081150290604051600060405180830381858888f19350505050158015611618573d6000803e3d6000fd5b5050565b81600073ffffffffffffffffffffffffffffffffffffffff1661163e826117b8565b73ffffffffffffffffffffffffffffffffffffffff161415151561166157600080fd5b823373ffffffffffffffffffffffffffffffffffffffff16611682826117b8565b73ffffffffffffffffffffffffffffffffffffffff161415156116a457600080fd5b82600c600086815260200190815260200160002090805190602001906116cb92919061257f565b507f6b920363d4b9197377bd87e528b12823202fbd8411c922311e5a58d0d2021d8b846040518082815260200191505060405180910390a150505050565b6060600260008373ffffffffffffffffffffffffffffffffffffffff1673ffffffffffffffffffffffffffffffffffffffff16815260200190815260200160002080548060200260200160405190810160405280929190818152602001828054801561179457602002820191906000526020600020905b815481526020019060010190808311611780575b50505050509050919050565b600e6020528060005260406000206000915090505481565b60006001600083815260200190815260200160002060009054906101000a900473ffffffffffffffffffffffffffffffffffffffff169050919050565b6000600260008373ffffffffffffffffffffffffffffffffffffffff1673ffffffffffffffffffffffffffffffffffffffff168152602001908152602001600020805490509050919050565b80600073ffffffffffffffffffffffffffffffffffffffff166001600083815260200190815260200160002060009054906101000a900473ffffffffffffffffffffffffffffffffffffffff1673ffffffffffffffffffffffffffffffffffffffff161415156118b057600080fd5b6009543414151561194f576040517f08c379a000000000000000000000000000000000000000000000000000000000815260040180806020018281038252602a8152602001807f76616c75652073656e74206d7573742062652065786163746c7920657175616c81526020017f7320746f2070726963650000000000000000000000000000000000000000000081525060400191505060405180910390fd5b600854821115151561196057600080fd5b34600d6000600760009054906101000a900473ffffffffffffffffffffffffffffffffffffffff1673ffffffffffffffffffffffffffffffffffffffff1673ffffffffffffffffffffffffffffffffffffffff168152602001908152602001600020600082825401925050819055506119d98233612213565b6119e33383612269565b600160008082825401925050819055507f80a902903a432d55fa4aacba4be2a79821bf5a27a98c69f914cfd93b1bd40aaf823433604051808481526020018381526020018273ffffffffffffffffffffffffffffffffffffffff1673ffffffffffffffffffffffffffffffffffffffff168152602001935050505060405180910390a15050565b600760009054906101000a900473ffffffffffffffffffffffffffffffffffffffff1681565b60068054600181600116156101000203166002900480601f016020809104026020016040519081016040528092919081815260200182805460018160011615610100020316600290048015611b265780601f10611afb57610100808354040283529160200191611b26565b820191906000526020600020905b815481529060010190602001808311611b0957829003601f168201915b505050505081565b80600073ffffffffffffffffffffffffffffffffffffffff16611b50826117b8565b73ffffffffffffffffffffffffffffffffffffffff1614151515611b7357600080fd5b813373ffffffffffffffffffffffffffffffffffffffff16611b94826117b8565b73ffffffffffffffffffffffffffffffffffffffff16141515611bb657600080fd5b600073ffffffffffffffffffffffffffffffffffffffff166004600085815260200190815260200160002060009054906101000a900473ffffffffffffffffffffffffffffffffffffffff1673ffffffffffffffffffffffffffffffffffffffff1614151515611c2557600080fd5b611c2e83612343565b600073ffffffffffffffffffffffffffffffffffffffff163373ffffffffffffffffffffffffffffffffffffffff167f8c5be1e5ebec7d5bd14f71427d1e84f3dd0314c0f7b2291e5b200ac8c7c3b925856040518082815260200191505060405180910390a3505050565b600760009054906101000a900473ffffffffffffffffffffffffffffffffffffffff1673ffffffffffffffffffffffffffffffffffffffff163373ffffffffffffffffffffffffffffffffffffffff16141515611d5e576040517f08c379a00000000000000000000000000000000000000000000000000000000081526004018080602001828103825260208152602001807f4f6e6c7920746865206f776e6572207065726d697474656420746f2063616c6c81525060200191505060405180910390fd5b806009819055507f2e04f20f7d98a1519376a9f26379422760c4519f5920757040812ccd70dbc6e0816040518082815260200191505060405180910390a150565b81600073ffffffffffffffffffffffffffffffffffffffff16611dc1826117b8565b73ffffffffffffffffffffffffffffffffffffffff1614151515611de457600080fd5b823373ffffffffffffffffffffffffffffffffffffffff16611e05826117b8565b73ffffffffffffffffffffffffffffffffffffffff16141515611e2757600080fd5b82600a60008681526020019081526020016000209080519060200190611e4e92919061257f565b507f014feefef3d14a4f8a1fb65024ed497652ce241647fa51b88d10edcb4cd3b852846040518082815260200191505060405180910390a150505050565b80600073ffffffffffffffffffffffffffffffffffffffff16611eae826117b8565b73ffffffffffffffffffffffffffffffffffffffff1614151515611ed157600080fd5b813373ffffffffffffffffffffffffffffffffffffffff16611ef2826117b8565b73ffffffffffffffffffffffffffffffffffffffff16141515611f1457600080fd5b600073ffffffffffffffffffffffffffffffffffffffff168473ffffffffffffffffffffffffffffffffffffffff1614151515611f5057600080fd5b611f5b338585612199565b8373ffffffffffffffffffffffffffffffffffffffff163373ffffffffffffffffffffffffffffffffffffffff167fddf252ad1be2c89b69c2b068fc378daa952ba7f163c4a11628f55a4df523b3ef856040518082815260200191505060405180910390a350505050565b600d6020528060005260406000206000915090505481565b6000600854905090565b600c6020528060005260406000206000915090508054600181600116156101000203166002900480601f0160208091040260200160405190810160405280929190818152602001828054600181600116156101000203166002900480156120905780601f1061206557610100808354040283529160200191612090565b820191906000526020600020905b81548152906001019060200180831161207357829003601f168201915b505050505081565b80600073ffffffffffffffffffffffffffffffffffffffff166120ba826117b8565b73ffffffffffffffffffffffffffffffffffffffff16141515156120dd57600080fd5b813373ffffffffffffffffffffffffffffffffffffffff166120fe826117b8565b73ffffffffffffffffffffffffffffffffffffffff1614151561212057600080fd5b826000600e60008381526020019081526020016000205411151561214357600080fd5b6000600e6000868152602001908152602001600020819055507fe4e97fb1e5ca0426d6f22dde5a4750bcbf8317d2b96a51a3e73b6f2329dd4f3a846040518082815260200191505060405180910390a150505050565b6121a281612343565b6121ac8382612399565b6000600e6000838152602001908152602001600020819055506121cf8183612213565b6121d98282612269565b505050565b60008282111515156121ec57fe5b818303905092915050565b6000818301905082811015151561220a57fe5b80905092915050565b806001600084815260200190815260200160002060006101000a81548173ffffffffffffffffffffffffffffffffffffffff021916908373ffffffffffffffffffffffffffffffffffffffff1602179055505050565b600260008373ffffffffffffffffffffffffffffffffffffffff1673ffffffffffffffffffffffffffffffffffffffff1681526020019081526020016000208190806001815401808255809150509060018203906000526020600020016000909192909190915055506123286001600260008573ffffffffffffffffffffffffffffffffffffffff1673ffffffffffffffffffffffffffffffffffffffff168152602001908152602001600020805490506121de90919063ffffffff16565b60036000838152602001908152602001600020819055505050565b60006004600083815260200190815260200160002060006101000a81548173ffffffffffffffffffffffffffffffffffffffff021916908373ffffffffffffffffffffffffffffffffffffffff16021790555050565b6000806000600260008673ffffffffffffffffffffffffffffffffffffffff1673ffffffffffffffffffffffffffffffffffffffff16815260200190815260200160002080549050925060036000858152602001908152602001600020549150600260008673ffffffffffffffffffffffffffffffffffffffff1673ffffffffffffffffffffffffffffffffffffffff1681526020019081526020016000206001840381548110151561244857fe5b9060005260206000200154905080600260008773ffffffffffffffffffffffffffffffffffffffff1673ffffffffffffffffffffffffffffffffffffffff168152602001908152602001600020838154811015156124a257fe5b9060005260206000200181905550816003600083815260200190815260200160002081905550600260008673ffffffffffffffffffffffffffffffffffffffff1673ffffffffffffffffffffffffffffffffffffffff1681526020019081526020016000206001840381548110151561251757fe5b9060005260206000200160009055600260008673ffffffffffffffffffffffffffffffffffffffff1673ffffffffffffffffffffffffffffffffffffffff16815260200190815260200160002080548091906001900361257791906125ff565b505050505050565b828054600181600116156101000203166002900490600052602060002090601f016020900481019282601f106125c057805160ff19168380011785556125ee565b828001600101855582156125ee579182015b828111156125ed5782518255916020019190600101906125d2565b5b5090506125fb919061262b565b5090565b81548183558181111561262657818360005260206000209182019101612625919061262b565b5b505050565b61264d91905b80821115612649576000816000905550600101612631565b5090565b905600a165627a7a723058209c2222fb9b577190967b2d4924b0e820fa0f79133dd31907ff73bd49567d5ba60029",
  "source": "pragma solidity ^0.4.24;\r\n\r\nimport \"./ERC721Simple.sol\";\r\n\r\n  \t/**\r\n\t * @title VitualLands of Shangeri-La\r\n\t *\r\n\t * A script that manages 10 000 tokens that represents a piece of vitual land within Shangeri-La.\r\n\t */\r\n\r\ncontract  VirtualLands is ERC721Simple {\r\n\r\n    // -----------------------------------------------------------------------------------------------------------\r\n    // ------------------------------------------------ Variables ------------------------------------------------\r\n    // ----------------------------------------------------------------------------------------------------------- \r\n\r\n    string public name = \"VirtualLands\";\r\n    string public symbol = \"VLs\";\r\n\t\r\n\t// the one who deployed the smart contract\r\n    address public owner;\t\r\n\t\r\n\t// the limit of totalSupply of tokens representing vituallands.\r\n    uint256 public totalSupplyLimit;\r\n\t\r\n\t// the price in wei, for the initial sale of virtuallands\r\n    uint256 public initialPrice;\r\n\t\r\n\t// white for \"not owned by anyone\" ,  green for \"owned\", blue for \"owned and for sale\".\r\n    mapping(uint => string) public tokenToPixelsColors;  \r\n\t\r\n\t// A string set and modified by land owner.\r\n    mapping(uint => string) public tokenToDescription;\r\n\t\r\n\t// A link set by owner to the description of his land;\r\n    mapping(uint => string) public tokenToLink;  \r\n\r\n    // The ether balance of all users of the smart contract\r\n    mapping(address => uint) public BalanceOfEther;\r\n\t\r\n\t// if equals zero, it's not up for sale\r\n    mapping(uint => uint) public tokenToSalePrice; \r\n\r\n    // -----------------------------------------------------------------------------------------------------------\r\n    // -------------------------------------------------- Events -------------------------------------------------\r\n    // -----------------------------------------------------------------------------------------------------------\r\n\r\n    event EmitUpForSale(uint256 _tokenId, uint256 _price);\r\n    event EmitBought(uint256 _tokenId, uint256 _at, address _by);\r\n    event EmitSaleOfferRemoved(uint256 _tokenId);\r\n    event EmitSetInitialPrice(uint256 _initialPrice);\r\n    event EmitChangedPixelsColors(uint256 _tokenId);    \r\n    event EmitChangedDescription(uint256 _tokenId);\r\n    event EmitChangedLink(uint256 _tokenId);\r\n\r\n    // -----------------------------------------------------------------------------------------------------------\r\n    // -------------------------------------------------- Modifiers ----------------------------------------------\r\n    // -----------------------------------------------------------------------------------------------------------\r\n\r\n    modifier onlyOwner() {\r\n        require(msg.sender == owner, \"Only the owner permitted to call\");\r\n        _;\r\n    }\r\n    \r\n    modifier onlyNonexistentToken(uint _tokenId) {\r\n        require(tokenIdToOwner[_tokenId] == address(0));\r\n        _;\r\n    }\r\n\r\n    modifier isUpForSale(uint _tokenId) {\r\n        require(tokenToSalePrice[_tokenId] > 0);\r\n        _;\r\n    }\r\n\r\n    modifier isNotUpForSale(uint _tokenId) {\r\n        require(tokenToSalePrice[_tokenId] == 0);\r\n        _;\r\n    }\r\n\r\n    modifier onlyNotOwnerOfToken(uint _tokenId) {\r\n        require(ownerOf(_tokenId) != msg.sender);\r\n        _;\r\n    }\r\n\r\n    // -----------------------------------------------------------------------------------------------------------\r\n    // ------------------------------------------------- Constructor ---------------------------------------------\r\n    // -----------------------------------------------------------------------------------------------------------\r\n\r\n    constructor () public {\r\n        owner = msg.sender;\r\n        totalSupplyLimit = 10000;\r\n        initialPrice = 10000000000000000;  //  0.01 eth = 10 finney\r\n    }\r\n\r\n    // -----------------------------------------------------------------------------------------------------------\r\n    // ------------------------------------------------ View functions -------------------------------------------\r\n    // -----------------------------------------------------------------------------------------------------------\r\n\r\n    /// @dev Gets the total supply limit of the virtual land tokens\r\n    function totalSupplyLimit() public view returns (uint256) {\r\n        return totalSupplyLimit;\r\n    }\r\n\r\n    /// @dev Gets the price for initial supply of virtual lands\r\n    function initialPrice() public view returns (uint256) {\r\n        return initialPrice;\r\n    }\r\n\r\n    // -----------------------------------------------------------------------------------------------------------\r\n    // --------------------------------------------- Core Public functions ---------------------------------------\r\n    // -----------------------------------------------------------------------------------------------------------\r\n\r\n    /// @dev Initial acquisition of the token\r\n    function initialBuyToken (uint _tokenId) payable public onlyNonexistentToken (_tokenId) {\r\n        \r\n        require(msg.value == initialPrice, \"value sent must be exactly equals to price\");  \r\n        require(_tokenId <= totalSupplyLimit);\r\n\r\n        BalanceOfEther[owner] += msg.value;\r\n\r\n        _setTokenOwner(_tokenId, msg.sender);\r\n        _addTokenToOwnersList(msg.sender, _tokenId);\r\n\r\n        totalSupply += 1;\r\n\r\n        emit EmitBought(_tokenId, msg.value, msg.sender);\r\n    }\r\n\t\r\n\t/// @dev changing the initialprice for sale, can only be called by owner\r\n    /// @notice the _initialPrice is in Wei\r\n    function setInitialPrice (uint _initialPrice) public onlyOwner() {\r\n        initialPrice = _initialPrice;\r\n        emit EmitSetInitialPrice(_initialPrice);\r\n    }\r\n\r\n    /// @dev changing the description of the token\r\n    function setTokenDescription (uint _tokenId, string _newDescription) public onlyExtantToken (_tokenId) onlyOwnerOfToken (_tokenId) {\r\n        tokenToDescription[_tokenId] = _newDescription;\r\n        emit EmitChangedDescription(_tokenId);\r\n    }\r\n\r\n    /// @dev changing the link of the token\r\n    function setTokenLink (uint _tokenId, string _newLink) public onlyExtantToken (_tokenId) onlyOwnerOfToken (_tokenId) {\r\n        tokenToLink[_tokenId] = _newLink;\r\n        emit EmitChangedLink(_tokenId);\r\n    }\r\n\r\n    /// @dev withdraw ether off the contract\r\n    function withdraw() public\r\n    {\r\n        uint amount = BalanceOfEther[msg.sender];\r\n        BalanceOfEther[msg.sender] = 0;\r\n        msg.sender.transfer(amount);\r\n    }\r\n\r\n    /// @dev putting token up for sale\r\n    /// @notice the _price is in Wei\r\n    function sellToken (uint _tokenId, uint _price) public onlyExtantToken (_tokenId) onlyOwnerOfToken (_tokenId) isNotUpForSale(_tokenId) {\r\n        require(_price > 0);\r\n\r\n        tokenToSalePrice[_tokenId] = _price;\r\n\r\n        emit EmitUpForSale(_tokenId, _price);\r\n    }\r\n\r\n    /// @dev buying token from someone\r\n    function buyToken (uint _tokenId) payable public onlyExtantToken (_tokenId) isUpForSale (_tokenId) onlyNotOwnerOfToken (_tokenId) {\r\n        require(msg.value >= tokenToSalePrice[_tokenId]);\r\n\r\n        tokenToSalePrice[_tokenId] = 0;\r\n        BalanceOfEther[ownerOf(_tokenId)] = msg.value.sub(1000000000000000); // substracts 1 finney \r\n        BalanceOfEther[owner] = BalanceOfEther[owner].add(1000000000000000); // transfer fee to owner\r\n        _clearApprovalAndTransfer(ownerOf(_tokenId), msg.sender, _tokenId);\r\n\r\n        emit EmitBought(_tokenId, msg.value, msg.sender);\r\n    }\r\n\r\n    /// @dev removing a sale proposition\r\n    function removeTokenFromSale (uint _tokenId) public onlyExtantToken (_tokenId) onlyOwnerOfToken (_tokenId) isUpForSale (_tokenId) {\r\n        tokenToSalePrice[_tokenId] = 0;\r\n        emit EmitSaleOfferRemoved(_tokenId);\r\n    }\r\n\r\n    /// @dev changing the colors of the token\r\n    function setTokenPixelsColors (uint _tokenId, string _newColors) public onlyExtantToken (_tokenId) onlyOwnerOfToken (_tokenId) {\r\n        tokenToPixelsColors[_tokenId] = _newColors;\r\n        emit EmitChangedPixelsColors(_tokenId);\r\n    }\r\n\r\n    // -----------------------------------------------------------------------------------------------------------\r\n    // ----------------------------------------------- Internal functions ----------------------------------------\r\n    // -----------------------------------------------------------------------------------------------------------\r\n\r\n    // calls all the internal functions above, to transfer a token from one user to another\r\n    // changed to nullify the selling offer when a token changes hands\r\n    function _clearApprovalAndTransfer(address _from, address _to, uint _tokenId) internal\r\n    {\r\n        _clearTokenApproval(_tokenId);\r\n        _removeTokenFromOwnersList(_from, _tokenId);\r\n\r\n        tokenToSalePrice[_tokenId] = 0;\r\n\r\n        _setTokenOwner(_tokenId, _to);\r\n        _addTokenToOwnersList(_to, _tokenId);\r\n    }\r\n}",
  "sourcePath": "K:\\dapp\\Shangri-La-Contracts\\contracts\\VirtualLands.sol",
  "compiler": {
    "name": "solc",
    "version": "0.4.24+commit.e67f0147.Emscripten.clang"
  },
  "schemaVersion": "2.0.1",
  "updatedAt": "2018-07-20T19:13:04.017Z"
}